:100000000C9462000C948A000C948A000C948A0070
:100010000C948A000C948A000C948A000C948A0038
:100020000C948A000C948A000C948A000C94C804E6
:100030000C948A000C948A000C948A000C948A0018
:100040000C947E040C948A000C948A000C948A0010
:100050000C948A000C948A000C948A000C948A00F8
:100060000C948A000C948A000000000024002700F1
:100070002A0000000000250028002B0000000000DE
:1000800023002600290004040404040404040202DA
:100090000202020203030303030301020408102007
:1000A0004080010204081020010204081020000012
:1000B0000008000201000003040700000000000027
:1000C0000000FD0611241FBECFEFD8E0DEBFCDBF7C
:1000D00011E0A0E0B1E0ECEAFFE002C005900D9273
:1000E000AA33B107D9F721E0AAE3B1E001C01D921C
:1000F000AF38B207E1F710E0C2E6D0E004C02197C4
:10010000FE010E94CE07C136D107C9F70E948405BF
:100110000C94D4070C940000833081F028F48130D3
:1001200099F08230A9F008958730A9F08830C9F09D
:100130008430B1F4809180008F7D03C08091800075
:100140008F7780938000089584B58F7784BD08955C
:1001500084B58F7DFBCF8091B0008F778093B00006
:1001600008958091B0008F7DF9CFCF93DF93282F32
:1001700030E0F901E255FF4F8491F901E656FF4F57
:10018000D491F901EA57FF4FC491CC23A1F081111A
:100190000E948C00EC2FF0E0EE0FFF1FE458FF4FA1
:1001A000A591B491EC91ED2381E090E009F480E019
:1001B000DF91CF91089580E090E0FACF1F93CF9325
:1001C000DF93282F30E0F901E255FF4F8491F901C8
:1001D000E656FF4FD491F901EA57FF4FC491CC2363
:1001E000A9F0162F81110E948C00EC2FF0E0EE0F89
:1001F000FF1FEE58FF4FA591B4918FB7F894EC9183
:10020000111108C0D095DE23DC938FBFDF91CF9111
:100210001F910895DE2BF8CFCF93DF9390E0FC0180
:10022000E656FF4F24918A579F4FFC018491882303
:10023000D1F090E0880F991FFC01E859FF4FA5917C
:10024000B491FC01EE58FF4FC591D49161110EC0DD
:100250009FB7F8948C91E22FE0958E238C932881A0
:10026000E223E8839FBFDF91CF9108958FB7F89481
:10027000EC91E22BEC938FBFF6CF3FB7F8948091CF
:10028000730190917401A0917501B091760126B52A
:10029000A89B05C02F3F19F00196A11DB11D3FBFBE
:1002A000BA2FA92F982F8827BC01CD01620F711D8D
:1002B000811D911D42E0660F771F881F991F4A9587
:1002C000D1F708958F929F92AF92BF92CF92DF9213
:1002D000EF92FF924B015C010E943D016B017C019A
:1002E0000E943D016C197D098E099F09683E73408B
:1002F00081059105A8F321E0821A9108A108B108AF
:1003000088EEC80E83E0D81EE11CF11C8114910414
:10031000A104B10429F7FF90EF90DF90CF90BF9038
:10032000AF909F908F900895AF92BF92CF92DF923F
:10033000EF92FF920F931F93CF93DF936C017B019A
:100340008B01040F151FEB015E01AE18BF08C0172B
:10035000D10759F06991D601ED91FC910190F0819E
:10036000E02DC6010995892B79F7C501DF91CF9161
:100370001F910F91FF90EF90DF90CF90BF90AF90C3
:1003800008958F929F92AF92BF92FF920F931F9307
:10039000CF93DF93FC01F0808BE08F1508F44AC007
:1003A000828108E512E0081B110987FD1395000FF3
:1003B000111F000F111F8181C8E8D0E0C81BD109AF
:1003C00087FDD395CC0FDD1FCC0FDD1F4E010D2E09
:1003D000000CAA08BB089801012E000C440B550B19
:1003E000281939094A095B09DB010E94890724EBB6
:1003F00030E040E050E00E945F07820E931EA41E92
:10040000B51E8C169D062CF0E801801691060CF4A2
:10041000E4012297CC0FDD1F2FB7F8948F2D90E0C9
:10042000FC01EE0FFF1FE80FF91FE45CFE4FD283C3
:10043000C1832FBFDF91CF911F910F91FF90BF908C
:10044000AF909F908F9008951F93CF93DF93EC010F
:10045000162F88818C3008F04EC061E0812F0E94F9
:100460000C018881282F30E0F901EE0FFF1FE20F09
:10047000F31FE45CFE4F1F736081607C612B60831F
:1004800019821A822CE0622F0E94C207829FB0015B
:10049000112430E020E0AB01420F531FFA01EE0FB0
:1004A000FF1FE40FF51FE45CFE4F908196FD16C020
:1004B0002F5F3F4F2C30310571F781110FC0109223
:1004C000800082E080938100109285001092840069
:1004D000B19A80916F00826080936F00E8818E2FC7
:1004E00090E0FC01EE0FFF1FE80FF91FE45CFE4FE8
:1004F0008081806480838881DF91CF911F910895EE
:10050000089590E080E00895CF93C82F61E00E94A5
:10051000DE0062E370E080E090E00E94620160E053
:100520008C2FCF910C94DE000F931F93CF93DF930A
:1005300081E10E94B5008C0182E10E94B500EC01CE
:1005400083E10E94B500880F991F880F991FCC0F77
:10055000DD1F8C2B9D2B802B912BDF91CF911F9139
:100560000F9108958F929F92AF92BF920F931F9316
:10057000CF93DF93CDB7DEB7A1970FB6F894DEBF68
:100580000FBECDBF19A2423008F44AE08E010F5DC4
:100590001F4F842E912CB12CA12CA50194010E94F7
:1005A0009107E62FB901CA01EA3044F5E05DD801B0
:1005B000EE938D01232B242B252B79F790E080E0FF
:1005C000109769F0FD0101900020E9F73197AF0124
:1005D0004A1B5B0BBD0187E791E00E949401A19645
:1005E0000FB6F894DEBF0FBECDBFDF91CF911F9144
:1005F0000F91BF90AF909F908F900895E95CD7CFF7
:10060000FC0101900020E9F73197AF01481B590B1D
:10061000BC0187E791E00C949401CF93DF93EC0148
:1006200060E08E810E94DE0061E08E810E94DE002B
:1006300060E08E810E94DE008BE891E00197F1F787
:10064000DF91CF910895CF92DF92EF92FF920F93B7
:100650001F93CF93DF936C017C0187E0E80EF11CC0
:10066000D0E0C0E0062F10E0B8010C2E02C0759556
:1006700067950A94E2F76170F70181917F010E940A
:10068000DE002196C430D10579F7C601DF91CF9104
:100690001F910F91FF90EF90DF90CF900C940D037E
:1006A000CF92DF92EF92FF920F931F93CF93DF933E
:1006B000EC01F62E642F8C810E94DE008D818F3F2D
:1006C00019F060E00E94DE000F2D10E08F8584FF9E
:1006D00025C06E0187E0C80ED11CF12CE12CB801B9
:1006E0000E2C02C0759567950A94E2F76170F601C9
:1006F00081916F010E94DE00FFEFEF1AFF0A88E090
:10070000E816F10461F7CE01DF91CF911F910F91AF
:10071000FF90EF90DF90CF900C940D03B80184E030
:10072000759567958A95E1F7CE010E9423036F2D99
:10073000CE01DF91CF911F910F91FF90EF90DF904D
:10074000CF900C94230340E0682F87E791E00C944E
:100750005003CF93DF93823029F490918601986003
:100760009093860180938A0110928B0180E480939C
:100770008C0180E180938D0180E580938E0161E0A2
:1007800080917B010E940C0180917C018F3F19F0C8
:1007900061E00E940C0161E080917D010E940C01EA
:1007A000C7E7D1E09E01275731408091860184FD43
:1007B0000BC084E090E021962817390744F461E0EB
:1007C0008E810E940C01EECF88E090E0F4CF8BE3A5
:1007D0009DE00197F1F760E080917B010E94DE00CF
:1007E00060E080917D010E94DE0080917C018F3F5E
:1007F00019F060E00E94DE008091860184FD39C01E
:1008000063E087E791E00E942303CBE4D6E4CE01C6
:100810000197F1F763E087E791E00E9423032197B6
:10082000F1F763E087E791E00E94230383E592E01C
:100830000197F1F762E087E791E00E94230380913E
:10084000860180620E94A30384E0809387018CE08C
:100850000E94A30381E00E94A3038BE39FE1019721
:10086000F1F782E08093880186E0DF91CF910C94CC
:10087000A30380620E94A3038BE496E40197F1F73F
:100880008091860180620E94A30383E592E0019734
:10089000F1F78091860180620E94A303D0CF41E0EE
:1008A0000E94500381E090E00895CF92DF92EF9292
:1008B000FF926C01990FEE08FF08F7FE16C041E0A9
:1008C0006DE287E791E00E94500366277727CB010E
:1008D0006C197D098E099F094AE00E94B2020196B7
:1008E000FF90EF90DF90CF9008954AE0C701B601E6
:1008F000FF90EF90DF90CF900C94B2021F920F9276
:100900000FB60F9211242F933F938F939F93AF9322
:10091000BF9380916F0190917001A0917101B0918E
:10092000720130916E0123E0230F2D3758F50196A7
:10093000A11DB11D20936E0180936F0190937001F2
:10094000A0937101B0937201809173019091740131
:10095000A0917501B09176010196A11DB11D809302
:10096000730190937401A0937501B0937601BF91C8
:10097000AF919F918F913F912F910F900FBE0F904C
:100980001F90189526E8230F0296A11DB11DD2CF06
:100990001F920F920FB60F9211242F933F934F93F4
:1009A0005F936F937F938F939F93AF93BF93CF93F7
:1009B000DF93EF93FF9380913B01C0913A01D0E028
:1009C00087FF24C0109285001092840080913B0123
:1009D0008F5F80933B0180913B01082E000C990BA7
:1009E0008C179D0724F480913B018C30C4F18091D9
:1009F000840090918500049680349C4908F47AC064
:100A00008091840090918500049676C080913B018E
:100A1000082E000C990B8C179D07C4F6E0913B0142
:100A20008E2FEE0F990BFC01EE0FFF1FE80FF91F41
:100A3000E45CFE4F808186FFC9CFE0913B018E2FA1
:100A4000EE0F990BFC01EE0FFF1FE80FF91FE45C9E
:100A5000FE4F808160E08F730E94DE00B7CF20914F
:100A6000840030918500E0913B018E2FEE0F990BB1
:100A7000FC01EE0FFF1FE80FF91FE45CFE4F8181C0
:100A80009281820F931F9093890080938800E09158
:100A90003B018E2FEE0F990BFC01EE0FFF1FE80FAD
:100AA000F91FE45CFE4F808186FF11C0E0913B019D
:100AB0008E2FEE0F990BFC01EE0FFF1FE80FF91FB1
:100AC000E45CFE4F808161E08F730E94DE00FF9145
:100AD000EF91DF91CF91BF91AF919F918F917F91D6
:100AE0006F915F914F913F912F910F900FBE0F909B
:100AF0001F90189580E49CE990938900809388006A
:100B00008FEF80933B01E3CF789484B5826084BDFE
:100B100084B5816084BD85B5826085BD85B5816001
:100B200085BD80916E00816080936E00109281007F
:100B3000809181008260809381008091810081603A
:100B400080938100809180008160809380008091FB
:100B5000B10084608093B1008091B0008160809387
:100B6000B00080917A00846080937A0080917A004E
:100B7000826080937A0080917A00816080937A000D
:100B800080917A00806880937A001092C10082E0A0
:100B90000E94A90369E070E080E691E00E942402CF
:100BA00060E170E083E691E00E94240270E060E082
:100BB00080E691E00E94C10170E060E083E691E090
:100BC0000E94C10161E08EE00E940C0161E08FE0B3
:100BD0000E940C0160E08EE00E94DE0060E08FE089
:100BE0000E94DE0061E088E00E940C0160E088E085
:100BF0000E94DE0060E081E10E940C0160E082E181
:100C00000E940C0160E083E10E940C0160E08AE038
:100C10000E940C0160E08BE00E940C0160E08CE01F
:100C20000E940C0160E08DE00E940C018FE090E0DA
:100C30000E94840284E191E00E94000368EE73E068
:100C400080E090E00E94620181E00E94A3038BE3B8
:100C50009FE10197F1F77724739493E2A92EB12CC9
:100C600020E0822E20E0922E8CE0E82E81E0F82E0B
:100C70000AE611E0D0E0C0E0F701C080F2E0EF0E3C
:100C8000F11C8C2D0E94B500F801D1908F0121E05C
:100C9000892B09F420E02D15D9F164E170E080E0A2
:100CA00090E00E9462018C2D0E94B5009C01662498
:100CB0006394892B09F4612CD61451F1CE018A5921
:100CC0009E4F6C01FC019081232B09F476C0911199
:100CD0001CC08EE090E00E9484028FE090E00E94B1
:100CE0008402F60170826AE570E080E691E00E947D
:100CF000C10160E27EE480E090E00E94620170E069
:100D000060E080E691E00E94C101F80131976082C5
:100D10002196C430D10509F0AFCF60E088E00E9491
:100D2000DE00C5010197F1F70E9494028C0161E099
:100D300088E00E94DE00C5010197F1F70E9494024D
:100D4000EC01E1E080918A018111E0E0E195F0E0C1
:100D5000E958FE4F848980680E94A30382E291E0F3
:100D60000E940003C8010E9455048BE291E00E949A
:100D70000003E0918A01E230F0F5E150F0E0E9583B
:100D8000FE4F848980680E94A3038FE291E00E9455
:100D90000003CE010E9455048BE291E00E94000303
:100DA00068EC70E080E090E00E94620181149104A0
:100DB00009F45ACF0E94000057CF992309F4A5CF18
:100DC0008FE090E00E9484028EE090E00E94840216
:100DD000F60110826AE570E083E691E00E94C101AD
:100DE00060E375E780E090E00E94620170E060E0FF
:100DF00083E691E088CFE1E0C1CFCF9310927A01F2
:100E00001092790184E091E09093780180937701CA
:100E100087E080937B01CFEFC0937C0186E08093D5
:100E20007D0185E080937E0184E080937F0183E0F3
:100E30008093800182E08093810110928201109260
:100E4000830110928401109285011092860181E045
:100E50000E94A90380913A018C3050F591E0980FDF
:100E600090933A018093600190E0FC01EE0FFF1F28
:100E7000E80FF91FE45CFE4F88EB9BE092838183CF
:100E800080913A018C30B8F491E0980F90933A0138
:100E90008093630190E0FC01EE0FFF1FE80FF91F44
:100EA000E45CFE4F88EB9BE092838183CF910895B1
:100EB000C0936001E5CF8FEF80936301F7CF052EDC
:100EC00097FB1EF400940E94760757FD07D00E94FE
:100ED000910707FC03D04EF40C947607509540958B
:100EE000309521953F4F4F4F5F4F089590958095D6
:100EF000709561957F4F8F4F9F4F08950E94B30764
:100F0000A59F900DB49F900DA49F800D911D11245D
:100F10000895B7FF0C947E070E947E07821B930BF7
:100F20000895A1E21A2EAA1BBB1BFD010DC0AA1F2A
:100F3000BB1FEE1FFF1FA217B307E407F50720F042
:100F4000A21BB30BE40BF50B661F771F881F991FBD
:100F50001A9469F760957095809590959B01AC0106
:100F6000BD01CF010895A29FB001B39FC001A39F0F
:100F7000700D811D1124911DB29F700D811D1124D2
:100F8000911D0895991B79E004C0991F961708F0E8
:100F9000961B881F7A95C9F780950895EE0FFF1F5D
:0C0FA0000590F491E02D0994F894FFCF27
:100FAC00000000004F049401810280020A000B0033
:100FBC000C000D0053697374656D61206C6973745A
:100FCC006F004C6C656E6F733A2000202020005629
:0A0FDC006163C3AD6F733A2000009B
:00000001FF
