:100000000C9462000C948A000C948A000C948A0070
:100010000C948A000C948A000C948A000C948A0038
:100020000C948A000C948A000C948A000C94B305FA
:100030000C948A000C948A000C948A000C948A0018
:100040000C9411050C948A000C9481050C945B05AA
:100050000C948A000C948A000C948A000C948A00F8
:100060000C948A000C948A000000000024002700F1
:100070002A0000000000250028002B0000000000DE
:1000800023002600290004040404040404040202DA
:100090000202020203030303030301020408102007
:1000A0004080010204081020010204081020000012
:1000B0000008000201000003040700000000000027
:1000C00000006F0611241FBECFEFD8E0DEBFCDBF0A
:1000D00011E0A0E0B1E0EEE1F4E102C005900D9284
:1000E000A03FB107D9F722E0A0EFB1E001C01D9217
:1000F000AB3DB207E1F710E0C2E6D0E004C02197C3
:10010000FE010E94070AC136D107C9F70E94F9060D
:100110000C940D0A0C9400008F929F92AF92BF92A4
:10012000FF920F931F93CF93DF93F090C0022BE0C9
:100130002F1508F44CC02091C20208E512E0021B02
:10014000110927FD1395000F111F000F111F20919A
:10015000C102C8E8D0E0C21BD10927FDD395CC0F5E
:10016000DD1FCC0FDD1F4E010D2E000CAA08BB08B1
:100170009801012E000C440B550B281939094A0926
:100180005B09DC010E94C20924EB30E040E050E052
:100190000E949809820E931EA41EB51E8C169D0601
:1001A0002CF0E801801691060CF4E4012297CC0FA4
:1001B000DD1F2FB7F8948F2D90E0FC01EE0FFF1F8D
:1001C000E80FF91FE556FD4FD283C1832FBFDF91A2
:1001D000CF911F910F91FF90BF90AF909F908F9004
:1001E0000895833081F028F4813099F08230A9F0AD
:1001F00008958730A9F08830C9F08430B1F4809137
:1002000080008F7D03C0809180008F778093800075
:10021000089584B58F7784BD089584B58F7DFBCF15
:100220008091B0008F778093B00008958091B000E6
:100230008F7DF9CFCF93DF93282F30E0F901E2557E
:10024000FF4F8491F901E656FF4FD491F901EA5727
:10025000FF4FC491CC23A1F081110E94F100EC2F3B
:10026000F0E0EE0FFF1FE458FF4FA591B491EC9121
:10027000ED2381E090E009F480E0DF91CF910895D3
:1002800080E090E0FACF1F93CF93DF93282F30E0E8
:10029000F901E255FF4F8491F901E656FF4FD491E1
:1002A000F901EA57FF4FC491CC23A9F0162F811111
:1002B0000E94F100EC2FF0E0EE0FFF1FEE58FF4F11
:1002C000A591B4918FB7F894EC91111108C0D09515
:1002D000DE23DC938FBFDF91CF911F910895DE2B3A
:1002E000F8CFCF93DF9390E0FC01E656FF4F2491C7
:1002F0008A579F4FFC0184918823D1F090E0880FAA
:10030000991FFC01E859FF4FA591B491FC01EE58EB
:10031000FF4FC591D49161110EC09FB7F8948C9195
:10032000E22FE0958E238C932881E223E8839FBF00
:10033000DF91CF9108958FB7F894EC91E22BEC9375
:100340008FBFF6CF3FB7F8948091FA019091FB01EF
:10035000A091FC01B091FD0126B5A89B05C02F3FDF
:1003600019F00196A11DB11D3FBFBA2FA92F982FDB
:100370008827BC01CD01620F711D811D911D42E0D6
:10038000660F771F881F991F4A95D1F708958F929E
:100390009F92AF92BF92CF92DF92EF92FF924B016A
:1003A0005C010E94A2016B017C010E94A2016C19F8
:1003B0007D098E099F09683E734081059105A8F368
:1003C00021E0821A9108A108B10888EEC80E83E0E6
:1003D000D81EE11CF11C81149104A104B10429F779
:1003E000FF90EF90DF90CF90BF90AF909F908F9055
:1003F0000895AF92BF92CF92DF92EF92FF920F9348
:100400001F93CF93DF936C017B018B01040F151FAA
:10041000EB015E01AE18BF08C017D10759F0699112
:10042000D601ED91FC910190F081E02DC601099576
:10043000892B79F7C501DF91CF911F910F91FF9023
:10044000EF90DF90CF90BF90AF900895FC01538D57
:10045000448D252F30E0842F90E0821B930B54179E
:1004600010F0CF96089501970895FC01918D828D2B
:10047000981761F0A28DAE0FBF2FB11D5D968C91C4
:10048000928D9F5F9F73928F90E008958FEF9FEF03
:100490000895FC01918D828D981731F0828DE80FBF
:1004A000F11D858D90E008958FEF9FEF0895FC0179
:1004B000918D228D892F90E0805C9F4F821B910946
:1004C0008F73992708958EEF91E00E94570221E0E3
:1004D000892B09F420E0822F089580E090E0892B99
:1004E00029F00E94630281110C9400000895FC0120
:1004F000A48DA80FB92FB11DA35ABF4F2C91848D85
:1005000090E001968F739927848FA689B7892C93E1
:10051000A089B1898C91837080648C93938D848D34
:10052000981306C00288F389E02D80818F7D808337
:100530000895EF92FF920F931F93CF93DF93EC01F7
:1005400081E0888F9B8D8C8D98131AC0E889F9897A
:10055000808185FF15C09FB7F894EE89FF8960837D
:10056000E889F98980818370806480839FBF81E0FE
:1005700090E0DF91CF911F910F91FF90EF90089540
:10058000F62E0B8D10E00F5F1F4F0F731127E02E1B
:100590008C8D8E110CC00FB607FCFACFE889F98953
:1005A000808185FFF5CFCE010E947702F1CFEB8DE0
:1005B000EC0FFD2FF11DE35AFF4FF0829FB7F89427
:1005C0000B8FEA89FB8980818062CFCFCF93DF9345
:1005D000EC01888D8823B9F0AA89BB89E889F9895B
:1005E0008C9185FD03C0808186FD0DC00FB607FC90
:1005F000F7CF8C9185FFF2CF808185FFEDCFCE01C3
:100600000E947702E9CFDF91CF910895089590E09D
:1006100080E00895CF93DF93EC0160E08E810E942B
:10062000430161E08E810E94430160E08E810E945F
:1006300043018BE891E00197F1F7DF91CF910895A5
:10064000CF92DF92EF92FF920F931F93CF93DF939E
:100650006C017C0187E0E80EF11CD0E0C0E0062FC1
:1006600010E0B8010C2E02C0759567950A94E2F768
:100670006170F70181917F010E9443012196C4308E
:10068000D10579F7C601DF91CF911F910F91FF90AE
:10069000EF90DF90CF900C940A03CF92DF92EF920D
:1006A000FF920F931F93CF93DF93EC01F62E642FED
:1006B0008C810E9443018D818F3F19F060E00E9480
:1006C00043010F2D10E08F8584FF25C06E0187E068
:1006D000C80ED11CF12CE12CB8010E2C02C075956E
:1006E00067950A94E2F76170F60181916F010E94AB
:1006F0004301FFEFEF1AFF0A88E0E816F10461F703
:10070000CE01DF91CF911F910F91FF90EF90DF907D
:10071000CF900C940A03B80184E0759567958A958B
:10072000E1F7CE010E9420036F2DCE01DF91CF9122
:100730001F910F91FF90EF90DF90CF900C942003CA
:1007400040E0682F83EC92E00C944D03CF93DF934D
:10075000823029F49091D20298609093D2028093D3
:10076000D6021092D70280E48093D80280E1809371
:10077000D90280E58093DA0261E08091C7020E948D
:1007800071018091C8028F3F19F061E00E947101F0
:1007900061E08091C9020E947101C3ECD2E09E0128
:1007A000235C32408091D20284FD0BC084E090E053
:1007B00021962817390744F461E08E810E94710167
:1007C000EECF88E090E0F4CF8BE39DE00197F1F766
:1007D00060E08091C7020E94430160E08091C902FD
:1007E0000E9443018091C8028F3F19F060E00E948F
:1007F00043018091D20284FD39C063E083EC92E032
:100800000E942003CBE4D6E4CE010197F1F763E028
:1008100083EC92E00E9420032197F1F763E083ECE0
:1008200092E00E94200383E592E00197F1F762E0F5
:1008300083EC92E00E9420038091D20280620E94A9
:10084000A00384E08093D3028CE00E94A00381E0A7
:100850000E94A0038BE39FE10197F1F782E0809370
:10086000D40286E0DF91CF910C94A00380620E94B5
:10087000A0038BE496E40197F1F78091D2028062A5
:100880000E94A00383E592E00197F1F78091D202E4
:1008900080620E94A003D0CF41E00E944D0381E01E
:1008A00090E00895FB0101900020E9F73197AF0136
:1008B000461B570BDC01ED91FC910280F381E02D8A
:1008C00009948F929F92AF92BF92EF92FF920F93F3
:1008D0001F93CF93DF93CDB7DEB7A1970FB6F894F0
:1008E000DEBF0FBECDBF7C01FA01CB0119A22230C1
:1008F00008F42AE08E010F5D1F4F822E912CB12C3F
:10090000A12CBF01A50194010E94CA09F901CA01E5
:100910006A300CF5605DD8016E938D01232B242B7A
:10092000252B79F790E080E0109721F0BD01C701F9
:100930000E945204A1960FB6F894DEBF0FBECDBF41
:10094000DF91CF911F910F91FF90EF90BF90AF90EB
:100950009F908F900895695CDECFCF92DF92EF92E7
:10096000FF920F931F93CF93DF93EC016A017B01FA
:10097000E881F9810190F081E02D6DE209958C010B
:1009800044275527BA014C195D096E097F092AE0F1
:10099000CE010E946104800F911FDF91CF911F91C2
:1009A0000F91FF90EF90DF90CF900895CF93DF935A
:1009B000AC01990F660B770B77FF10C08EEF91E0BB
:1009C0000E94AD04EC016BE271E08EEF91E00E94B9
:1009D00052048C0F9D1FDF91CF9108952AE08EEF76
:1009E00091E00E946104EECFAB01770F660B770BAD
:1009F00077FD0C94AD042AE00C946104CF93DF934F
:100A0000BC018EEF91E00E945204EC016BE271E0B8
:100A10008EEF91E00E9452048C0F9D1FDF91CF91C9
:100A200008951F920F920FB60F9211242F933F93A8
:100A30008F939F93AF93BF938091F6019091F701AD
:100A4000A091F801B091F9013091F50123E0230F55
:100A50002D3758F50196A11DB11D2093F501809306
:100A6000F6019093F701A093F801B093F9018091FA
:100A7000FA019091FB01A091FC01B091FD0101965A
:100A8000A11DB11D8093FA019093FB01A093FC017D
:100A9000B093FD01BF91AF919F918F913F912F91A5
:100AA0000F900FBE0F901F90189526E8230F029607
:100AB000A11DB11DD2CF1F920F920FB60F9211241C
:100AC0002F933F934F935F936F937F938F939F9356
:100AD000AF93BF93EF93FF938EEF91E00E94770265
:100AE000FF91EF91BF91AF919F918F917F916F9106
:100AF0005F914F913F912F910F900FBE0F901F90DC
:100B000018951F920F920FB60F9211242F938F9367
:100B10009F93EF93FF93E0910E02F0910F0280817B
:100B2000E0911402F091150282FD1BC0908180912A
:100B300017028F5F8F7320911802821741F0E091A6
:100B40001702F0E0E250FE4F958F80931702FF915D
:100B5000EF919F918F912F910F900FBE0F901F904B
:100B600018958081F4CF1F920F920FB60F92112427
:100B70002F933F934F935F936F937F938F939F93A5
:100B8000AF93BF93CF93DF93EF93FF938091F001E7
:100B9000C091BF02D0E087FF24C010928500109260
:100BA00084008091F0018F5F8093F0018091F001CB
:100BB000082E000C990B8C179D0724F48091F001EE
:100BC0008C30C4F18091840090918500049680342B
:100BD0009C4908F47AC08091840090918500049625
:100BE00076C08091F001082E000C990B8C179D07A0
:100BF000C4F6E091F0018E2FEE0F990BFC01EE0F81
:100C0000FF1FE80FF91FE556FD4F808186FFC9CF12
:100C1000E091F0018E2FEE0F990BFC01EE0FFF1FFC
:100C2000E80FF91FE556FD4F808160E08F730E9449
:100C30004301B7CF2091840030918500E091F0010D
:100C40008E2FEE0F990BFC01EE0FFF1FE80FF91F1F
:100C5000E556FD4F81819281820F931F9093890009
:100C600080938800E091F0018E2FEE0F990BFC012C
:100C7000EE0FFF1FE80FF91FE556FD4F808186FF3D
:100C800011C0E091F0018E2FEE0F990BFC01EE0FD9
:100C9000FF1FE80FF91FE556FD4F808161E08F735C
:100CA0000E944301FF91EF91DF91CF91BF91AF91EE
:100CB0009F918F917F916F915F914F913F912F9174
:100CC0000F900FBE0F901F90189580E49CE99093B1
:100CD0008900809388008FEF8093F001E3CFCF935A
:100CE000109201021092000288EE93E0A0E0B0E0C2
:100CF0008093020290930302A0930402B093050232
:100D000081E191E09093FF018093FE0185EC90E0FA
:100D100090930B0280930A0284EC90E090930D0272
:100D200080930C0280EC90E090930F0280930E026F
:100D300081EC90E0909311028093100282EC90E09D
:100D4000909313028093120286EC90E09093150228
:100D50008093140210921702109218021092190236
:100D600010921A021092C6021092C50283E291E01C
:100D70009093C4028093C30289E08093C702CFEFAF
:100D8000C093C8028AE08093C9028BE08093CA02B4
:100D90008CE08093CB0282E18093CC0283E180934C
:100DA000CD021092CE021092CF021092D002109279
:100DB000D1021092D20281E00E94A6038091BF026C
:100DC0008C30A0F491E0980F9093BF028093C00202
:100DD00090E0FC01EE0FFF1FE80FF91FE556FD4FF5
:100DE00088EB9BE092838183CF910895C093C002EA
:100DF000FBCF789484B5826084BD84B5816084BD66
:100E000085B5826085BD85B5816085BD80916E00A8
:100E1000816080936E0010928100809181008260D9
:100E20008093810080918100816080938100809116
:100E300080008160809380008091B1008460809305
:100E4000B1008091B00081608093B00080917A0001
:100E5000846080937A0080917A00826080937A0027
:100E600080917A00816080937A0080917A00806816
:100E700080937A001092C100E0910E02F0910F026F
:100E800082E08083E0910A02F0910B021082E091EF
:100E90000C02F0910D028FEC808310921602E0910B
:100EA0001202F091130286E08083E0911002F0912B
:100EB0001102808180618083E0911002F091110223
:100EC000808188608083E0911002F091110280811E
:100ED00080688083E0911002F091110280818F7D03
:100EE000808360E08EE00E94710160E08FE00E94EC
:100EF000710160E080E10E94710160E081E10E9487
:100F0000710160E086E00E94710160E087E00E946C
:100F1000710160E088E00E94710161E084E00E945C
:100F2000710161E085E00E94710160E082E00E9451
:100F300071018091C0028C3008F051C061E083E003
:100F40000E9471018091C002282F30E0F901EE0F5C
:100F5000FF1FE20FF31FE556FD4F9081907C9360D9
:100F600090831092C1021092C2022CE0622F0E9464
:100F7000FB09829FB001112430E020E0AB01420F59
:100F8000531FFA01EE0FFF1FE40FF51FE556FD4F4B
:100F9000908196FD16C02F5F3F4F2C30310571F7C1
:100FA00081110FC01092800082E080938100109226
:100FB000850010928400B19A80916F0082608093C6
:100FC0006F00E091C0028E2F90E0FC01EE0FFF1F3A
:100FD000E80FF91FE556FD4F80818064808390E023
:100FE00080E00E948C0082E00E94A603E1E08091F4
:100FF000D6028111E0E0E195F0E0ED53FD4F8489E8
:1010000080680E94A0036EE271E083EC92E00E948F
:10101000520468EE73E080E090E00E94C70187E32D
:1010200091E00E94FE0460E084E00E944301CBE076
:10103000D0E061E085E00E94430162E370E080E07F
:1010400090E00E94C70160E085E00E94430162E3F6
:1010500070E080E090E00E94C701219751F786E0A0
:101060000E941A018C0187E00E941A01EC0188E0BD
:101070000E941A01CC0FDD1FC00FD11F880F991FCE
:10108000880F991F8C0F9D1F90930301809302017D
:10109000C4E0D0E0C81BD90B61E084E00E944301AA
:1010A00010E000E00C171D07BCF461E085E00E9431
:1010B000430162E370E080E090E00E94C70160E0DD
:1010C00085E00E94430162E370E080E090E00E94CE
:1010D000C7010F5F1F4FE6CF60E084E00E9443012D
:1010E00021EFE22E21E0F22E05E011E0F8018081EF
:1010F0000E5F1F4F0E941A0121E0892B09F420E0A6
:10110000F70121937F01F1E00D301F0779F760E5CA
:1011100071E08EEF91E00E945204609102017091A3
:1011200003018EEF91E00E94F40468E671E08EEF17
:1011300091E00E945204CE010E94D60400E010E02B
:1011400082E00E941A01C1E0009709F4C0E0892BF7
:10115000F1F4809104018823D1F0809102019091F3
:101160000301181619060CF0B9C08AE590E00E9438
:101170008C0060E27EE480E090E00E94C70190E095
:1011800080E00E948C0087E891E00E94FE04C093FA
:10119000040181EFC82E81E0D82E95E0A92E91E0C0
:1011A000B92EF12CE12CF5018081F2E0AF0EB11CDB
:1011B0000E941A019C0199249394892B09F4912C83
:1011C000F60191916F01C0910201D0910301FFEFEF
:1011D000EF1AFF0A232B09F484C0911131C01C16A9
:1011E0001D0674F560E084E00E94430161E085E043
:1011F0000E94430164E670E080E090E00E94C70135
:1012000060E085E00E9443012197D0930301C093E1
:1012100002016AEB71E08EEF91E00E945204B70187
:101220008EEF91E00E94F4046BEC71E08EEF91E0A0
:101230000E94520480910201909103010E94D60401
:10124000F6013197908284E0E816F10409F0ABCF03
:1012500020910201309103018091000190910101E0
:101260002817390749F1E091D602E23008F05EC054
:10127000E150F0E0ED53FD4F848980680E94A003A7
:1012800060ED71E083EC92E00E94520460910201F3
:101290007091030183EC92E00E94F4046BEE71E024
:1012A00083EC92E00E94520480910201909103012C
:1012B000909301018093000164E670E080E090E08B
:1012C0000E94C7010115110509F43ACF0E9463027B
:1012D000882309F435CF0E94000032CF8CEA91E0D8
:1012E00054CF992309F4ACCFC430D1050CF0A8CF6A
:1012F00061E084E00E94430161E085E00E944301D7
:1013000064E670E080E090E00E94C70160E085E064
:101310000E94430160E084E00E9443012196D09343
:101320000301C093020169ED71E075CFE1E0A1CF47
:10133000052E97FB1EF400940E94AF0957FD07D0BD
:101340000E94CA0907FC03D04EF40C94AF095095D3
:101350004095309521953F4F4F4F5F4F08959095A1
:101360008095709561957F4F8F4F9F4F08950E9494
:10137000EC09A59F900DB49F900DA49F800D911D29
:1013800011240895B7FF0C94B7090E94B709821B76
:10139000930B0895A1E21A2EAA1BBB1BFD010DC0E1
:1013A000AA1FBB1FEE1FFF1FA217B307E407F50715
:1013B00020F0A21BB30BE40BF50B661F771F881FF1
:1013C000991F1A9469F760957095809590959B0187
:1013D000AC01BD01CF010895A29FB001B39FC00130
:1013E000A39F700D811D1124911DB29F700D811D51
:1013F0001124911D0895991B79E004C0991F961737
:1014000008F0961B881F7A95C9F780950895EE0F0E
:0E141000FF1F0590F491E02D0994F894FFCF92
:10141E00FFFF0400010E000F00100011000000007D
:10142E00009902F9012602E602570235024902002E
:10143E000000004C04F901070306030D0A00546F67
:10144E0074616C3A203400496E696369616C697A23
:10145E00616E646F2073697374656D612E2E2E003C
:10146E00436F6E7461646F722064657363656E643E
:10147E00656E7465203D2000207C20417363656E8F
:10148E0064656E74652073696E63726F6E697A61DE
:10149E00646F20656E200054616C616E71756572AB
:1014AE00612061626965727461202D20766568C362
:1014BE00AD63756C6F20656E7472610050617271F0
:1014CE0075656F206C6C656E6F004F63757061642F
:1014DE006F206573706163696F200020E286922031
:1014EE004C69627265733A20004C69626572616480
:1014FE006F206573706163696F20002020200000EB
:00000001FF
